{
  "contractName": "PharmaChain",
  "abi": [
    {
      "inputs": [],
      "stateMutability": "nonpayable",
      "type": "constructor"
    },
    {
      "anonymous": false,
      "inputs": [
        {
          "indexed": false,
          "internalType": "string",
          "name": "productId",
          "type": "string"
        }
      ],
      "name": "ProductAdded",
      "type": "event"
    },
    {
      "inputs": [
        {
          "internalType": "uint256",
          "name": "",
          "type": "uint256"
        }
      ],
      "name": "locationList",
      "outputs": [
        {
          "internalType": "string",
          "name": "",
          "type": "string"
        }
      ],
      "stateMutability": "view",
      "type": "function",
      "constant": true
    },
    {
      "inputs": [
        {
          "internalType": "string",
          "name": "",
          "type": "string"
        }
      ],
      "name": "locations",
      "outputs": [
        {
          "internalType": "bool",
          "name": "",
          "type": "bool"
        }
      ],
      "stateMutability": "view",
      "type": "function",
      "constant": true
    },
    {
      "inputs": [],
      "name": "owner",
      "outputs": [
        {
          "internalType": "address",
          "name": "",
          "type": "address"
        }
      ],
      "stateMutability": "view",
      "type": "function",
      "constant": true
    },
    {
      "inputs": [],
      "name": "productCounter",
      "outputs": [
        {
          "internalType": "uint256",
          "name": "",
          "type": "uint256"
        }
      ],
      "stateMutability": "view",
      "type": "function",
      "constant": true
    },
    {
      "inputs": [
        {
          "internalType": "uint256",
          "name": "",
          "type": "uint256"
        }
      ],
      "name": "productIds",
      "outputs": [
        {
          "internalType": "string",
          "name": "",
          "type": "string"
        }
      ],
      "stateMutability": "view",
      "type": "function",
      "constant": true
    },
    {
      "inputs": [
        {
          "internalType": "string",
          "name": "",
          "type": "string"
        }
      ],
      "name": "products",
      "outputs": [
        {
          "internalType": "string",
          "name": "id",
          "type": "string"
        },
        {
          "internalType": "string",
          "name": "name",
          "type": "string"
        },
        {
          "internalType": "string",
          "name": "manufacturer",
          "type": "string"
        },
        {
          "internalType": "uint256",
          "name": "quantity",
          "type": "uint256"
        },
        {
          "internalType": "string",
          "name": "origin",
          "type": "string"
        },
        {
          "internalType": "string",
          "name": "destination",
          "type": "string"
        },
        {
          "internalType": "string",
          "name": "date_of_departure",
          "type": "string"
        },
        {
          "internalType": "string",
          "name": "expected_arrival_date",
          "type": "string"
        },
        {
          "internalType": "string",
          "name": "status",
          "type": "string"
        },
        {
          "internalType": "bool",
          "name": "exists",
          "type": "bool"
        }
      ],
      "stateMutability": "view",
      "type": "function",
      "constant": true
    },
    {
      "inputs": [
        {
          "internalType": "string",
          "name": "",
          "type": "string"
        },
        {
          "internalType": "uint256",
          "name": "",
          "type": "uint256"
        }
      ],
      "name": "shipmentHistories",
      "outputs": [
        {
          "internalType": "uint256",
          "name": "timestamp",
          "type": "uint256"
        },
        {
          "internalType": "string",
          "name": "origin",
          "type": "string"
        },
        {
          "internalType": "string",
          "name": "destination",
          "type": "string"
        },
        {
          "internalType": "string",
          "name": "date_of_departure",
          "type": "string"
        },
        {
          "internalType": "string",
          "name": "expected_arrival_date",
          "type": "string"
        },
        {
          "internalType": "string",
          "name": "status",
          "type": "string"
        }
      ],
      "stateMutability": "view",
      "type": "function",
      "constant": true
    },
    {
      "inputs": [
        {
          "internalType": "string",
          "name": "",
          "type": "string"
        }
      ],
      "name": "statuses",
      "outputs": [
        {
          "internalType": "bool",
          "name": "",
          "type": "bool"
        }
      ],
      "stateMutability": "view",
      "type": "function",
      "constant": true
    },
    {
      "inputs": [
        {
          "internalType": "address",
          "name": "",
          "type": "address"
        }
      ],
      "name": "users",
      "outputs": [
        {
          "internalType": "address",
          "name": "userAddress",
          "type": "address"
        },
        {
          "internalType": "enum PharmaChain.Role",
          "name": "role",
          "type": "uint8"
        },
        {
          "internalType": "bool",
          "name": "exists",
          "type": "bool"
        }
      ],
      "stateMutability": "view",
      "type": "function",
      "constant": true
    },
    {
      "inputs": [
        {
          "internalType": "address",
          "name": "_userAddress",
          "type": "address"
        },
        {
          "internalType": "enum PharmaChain.Role",
          "name": "_role",
          "type": "uint8"
        }
      ],
      "name": "addUser",
      "outputs": [],
      "stateMutability": "nonpayable",
      "type": "function"
    },
    {
      "inputs": [
        {
          "internalType": "address",
          "name": "_userAddress",
          "type": "address"
        }
      ],
      "name": "removeUser",
      "outputs": [],
      "stateMutability": "nonpayable",
      "type": "function"
    },
    {
      "inputs": [
        {
          "internalType": "string",
          "name": "_location",
          "type": "string"
        }
      ],
      "name": "addLocation",
      "outputs": [],
      "stateMutability": "nonpayable",
      "type": "function"
    },
    {
      "inputs": [
        {
          "internalType": "string",
          "name": "_location",
          "type": "string"
        }
      ],
      "name": "removeLocation",
      "outputs": [],
      "stateMutability": "nonpayable",
      "type": "function"
    },
    {
      "inputs": [
        {
          "internalType": "string",
          "name": "_name",
          "type": "string"
        },
        {
          "internalType": "string",
          "name": "_manufacturer",
          "type": "string"
        },
        {
          "internalType": "uint256",
          "name": "_quantity",
          "type": "uint256"
        },
        {
          "internalType": "string",
          "name": "_origin",
          "type": "string"
        },
        {
          "internalType": "string",
          "name": "_destination",
          "type": "string"
        },
        {
          "internalType": "string",
          "name": "_date_of_departure",
          "type": "string"
        },
        {
          "internalType": "string",
          "name": "_expected_arrival_date",
          "type": "string"
        },
        {
          "internalType": "string",
          "name": "_status",
          "type": "string"
        }
      ],
      "name": "addProduct",
      "outputs": [],
      "stateMutability": "nonpayable",
      "type": "function"
    },
    {
      "inputs": [
        {
          "internalType": "string",
          "name": "_productId",
          "type": "string"
        },
        {
          "internalType": "string",
          "name": "_origin",
          "type": "string"
        },
        {
          "internalType": "string",
          "name": "_destination",
          "type": "string"
        },
        {
          "internalType": "string",
          "name": "_date_of_departure",
          "type": "string"
        },
        {
          "internalType": "string",
          "name": "_expected_arrival_date",
          "type": "string"
        },
        {
          "internalType": "string",
          "name": "_status",
          "type": "string"
        }
      ],
      "name": "updateProductLocation",
      "outputs": [],
      "stateMutability": "nonpayable",
      "type": "function"
    },
    {
      "inputs": [
        {
          "internalType": "enum PharmaChain.ProductStatus",
          "name": "status",
          "type": "uint8"
        }
      ],
      "name": "getIndex",
      "outputs": [
        {
          "internalType": "uint256",
          "name": "",
          "type": "uint256"
        }
      ],
      "stateMutability": "pure",
      "type": "function",
      "constant": true
    },
    {
      "inputs": [
        {
          "internalType": "string",
          "name": "_productId",
          "type": "string"
        }
      ],
      "name": "getProduct",
      "outputs": [
        {
          "components": [
            {
              "internalType": "string",
              "name": "id",
              "type": "string"
            },
            {
              "internalType": "string",
              "name": "name",
              "type": "string"
            },
            {
              "internalType": "string",
              "name": "manufacturer",
              "type": "string"
            },
            {
              "internalType": "uint256",
              "name": "quantity",
              "type": "uint256"
            },
            {
              "internalType": "string",
              "name": "origin",
              "type": "string"
            },
            {
              "internalType": "string",
              "name": "destination",
              "type": "string"
            },
            {
              "internalType": "string",
              "name": "date_of_departure",
              "type": "string"
            },
            {
              "internalType": "string",
              "name": "expected_arrival_date",
              "type": "string"
            },
            {
              "internalType": "string",
              "name": "status",
              "type": "string"
            },
            {
              "internalType": "bool",
              "name": "exists",
              "type": "bool"
            }
          ],
          "internalType": "struct PharmaChain.Product",
          "name": "",
          "type": "tuple"
        }
      ],
      "stateMutability": "view",
      "type": "function",
      "constant": true
    },
    {
      "inputs": [
        {
          "internalType": "string",
          "name": "_productId",
          "type": "string"
        }
      ],
      "name": "getProductHistory",
      "outputs": [
        {
          "components": [
            {
              "internalType": "uint256",
              "name": "timestamp",
              "type": "uint256"
            },
            {
              "internalType": "string",
              "name": "origin",
              "type": "string"
            },
            {
              "internalType": "string",
              "name": "destination",
              "type": "string"
            },
            {
              "internalType": "string",
              "name": "date_of_departure",
              "type": "string"
            },
            {
              "internalType": "string",
              "name": "expected_arrival_date",
              "type": "string"
            },
            {
              "internalType": "string",
              "name": "status",
              "type": "string"
            }
          ],
          "internalType": "struct PharmaChain.ShipmentHistory[]",
          "name": "",
          "type": "tuple[]"
        }
      ],
      "stateMutability": "view",
      "type": "function",
      "constant": true
    },
    {
      "inputs": [],
      "name": "getAllLocations",
      "outputs": [
        {
          "internalType": "string[]",
          "name": "",
          "type": "string[]"
        }
      ],
      "stateMutability": "view",
      "type": "function",
      "constant": true
    }
  ],
  "bytecode": "0x60806040523480156200001157600080fd5b5033600760006101000a81548173ffffffffffffffffffffffffffffffffffffffff021916908373ffffffffffffffffffffffffffffffffffffffff1602179055506040518060600160405280600760009054906101000a900473ffffffffffffffffffffffffffffffffffffffff1673ffffffffffffffffffffffffffffffffffffffff16815260200160006003811115620000d7577f4e487b7100000000000000000000000000000000000000000000000000000000600052602160045260246000fd5b815260200160011515815250600080600760009054906101000a900473ffffffffffffffffffffffffffffffffffffffff1673ffffffffffffffffffffffffffffffffffffffff1673ffffffffffffffffffffffffffffffffffffffff16815260200190815260200160002060008201518160000160006101000a81548173ffffffffffffffffffffffffffffffffffffffff021916908373ffffffffffffffffffffffffffffffffffffffff16021790555060208201518160000160146101000a81548160ff02191690836003811115620001dc577f4e487b7100000000000000000000000000000000000000000000000000000000600052602160045260246000fd5b021790555060408201518160000160156101000a81548160ff0219169083151502179055509050506200024a6040518060400160405280600881526020017f537570706c6965720000000000000000000000000000000000000000000000008152506200048a60201b60201c565b620002906040518060400160405280600981526020017f5472616e73706f727400000000000000000000000000000000000000000000008152506200048a60201b60201c565b620002d66040518060400160405280600c81526020017f4d616e75666163747572657200000000000000000000000000000000000000008152506200048a60201b60201c565b6200031c6040518060400160405280601181526020017f4c6f67697374696357617265686f7573650000000000000000000000000000008152506200048a60201b60201c565b620003626040518060400160405280600b81526020017f4469737472696275746f720000000000000000000000000000000000000000008152506200048a60201b60201c565b620003a86040518060400160405280601181526020017f506861726d61637957617265686f7573650000000000000000000000000000008152506200048a60201b60201c565b60016004604051620003ba906200073a565b908152602001604051809103902060006101000a81548160ff02191690831515021790555060016004604051620003f19062000751565b908152602001604051809103902060006101000a81548160ff0219169083151502179055506001600460405162000428906200070c565b908152602001604051809103902060006101000a81548160ff021916908315150217905550600160046040516200045f9062000723565b908152602001604051809103902060006101000a81548160ff02191690831515021790555062000819565b60016003826040516200049e9190620006f3565b908152602001604051809103902060006101000a81548160ff0219169083151502179055506005819080600181540180825580915050600190039060005260206000200160009091909190915090805190602001906200050092919062000504565b5050565b8280546200051290620007b4565b90600052602060002090601f01602090048101928262000536576000855562000582565b82601f106200055157805160ff191683800117855562000582565b8280016001018555821562000582579182015b828111156200058157825182559160200191906001019062000564565b5b50905062000591919062000595565b5090565b5b80821115620005b057600081600090555060010162000596565b5090565b6000620005c18262000768565b620005cd818562000773565b9350620005df8185602086016200077e565b80840191505092915050565b6000620005fa60098362000773565b91507f496e5472616e73697400000000000000000000000000000000000000000000006000830152600982019050919050565b60006200063c60098362000773565b91507f44656c69766572656400000000000000000000000000000000000000000000006000830152600982019050919050565b60006200067e60078362000773565b91507f43726561746564000000000000000000000000000000000000000000000000006000830152600782019050919050565b6000620006c060078362000773565b91507f53686970706564000000000000000000000000000000000000000000000000006000830152600782019050919050565b6000620007018284620005b4565b915081905092915050565b60006200071982620005eb565b9150819050919050565b600062000730826200062d565b9150819050919050565b600062000747826200066f565b9150819050919050565b60006200075e82620006b1565b9150819050919050565b600081519050919050565b600081905092915050565b60005b838110156200079e57808201518184015260208101905062000781565b83811115620007ae576000848401525b50505050565b60006002820490506001821680620007cd57607f821691505b60208210811415620007e457620007e3620007ea565b5b50919050565b7f4e487b7100000000000000000000000000000000000000000000000000000000600052602260045260246000fd5b615dd580620008296000396000f3fe608060405234801561001057600080fd5b50600436106101215760003560e01c80636928e951116100ad578063a87430ba11610071578063a87430ba1461033a578063b545b57a1461036c578063cb51bba914610388578063d4f50453146103b8578063e56afce9146103e857610121565b80636928e9511461027f5780638da5cb5b146102af57806395a638e1146102cd57806398575188146103025780639c3eead91461031e57610121565b80633cb64d56116100f45780633cb64d56146101b757806341053e2d146101e75780635fddb0881461021757806361804e8f1461023357806368111cce1461024f57610121565b80630186a4231461012657806308e531691461015f5780631076e9671461017b5780631f16653b14610199575b600080fd5b610140600480360381019061013b91906145f0565b610418565b6040516101569a999897969594939291906154be565b60405180910390f35b61017960048036038101906101749190614631565b6108cf565b005b61018361116b565b604051610190919061543d565b60405180910390f35b6101a16112d2565b6040516101ae91906157f4565b60405180910390f35b6101d160048036038101906101cc91906145f0565b6112d8565b6040516101de9190615481565b60405180910390f35b61020160048036038101906101fc91906145f0565b61130e565b60405161020e9190615481565b60405180910390f35b610231600480360381019061022c91906145f0565b611344565b005b61024d600480360381019061024891906145f0565b6115b5565b005b610269600480360381019061026491906145f0565b611977565b60405161027691906157d2565b60405180910390f35b610299600480360381019061029491906148f8565b61287e565b6040516102a6919061549c565b60405180910390f35b6102b761292a565b6040516102c491906153eb565b60405180910390f35b6102e760048036038101906102e291906148a4565b612950565b6040516102f99695949392919061580f565b60405180910390f35b61031c60048036038101906103179190614562565b612c67565b005b6103386004803603810190610333919061458b565b612e89565b005b610354600480360381019061034f9190614562565b613186565b60405161036393929190615406565b60405180910390f35b6103866004803603810190610381919061474a565b6131ea565b005b6103a2600480360381019061039d91906148f8565b6137c4565b6040516103af919061549c565b60405180910390f35b6103d260048036038101906103cd91906145f0565b613870565b6040516103df919061545f565b60405180910390f35b61040260048036038101906103fd91906145c7565b613c5f565b60405161040f91906157f4565b60405180910390f35b60018180516020810182018051848252602083016020850120818352809550505050505060009150905080600001805461045190615bc6565b80601f016020809104026020016040519081016040528092919081815260200182805461047d90615bc6565b80156104ca5780601f1061049f576101008083540402835291602001916104ca565b820191906000526020600020905b8154815290600101906020018083116104ad57829003601f168201915b5050505050908060010180546104df90615bc6565b80601f016020809104026020016040519081016040528092919081815260200182805461050b90615bc6565b80156105585780601f1061052d57610100808354040283529160200191610558565b820191906000526020600020905b81548152906001019060200180831161053b57829003601f168201915b50505050509080600201805461056d90615bc6565b80601f016020809104026020016040519081016040528092919081815260200182805461059990615bc6565b80156105e65780601f106105bb576101008083540402835291602001916105e6565b820191906000526020600020905b8154815290600101906020018083116105c957829003601f168201915b50505050509080600301549080600401805461060190615bc6565b80601f016020809104026020016040519081016040528092919081815260200182805461062d90615bc6565b801561067a5780601f1061064f5761010080835404028352916020019161067a565b820191906000526020600020905b81548152906001019060200180831161065d57829003601f168201915b50505050509080600501805461068f90615bc6565b80601f01602080910402602001604051908101604052809291908181526020018280546106bb90615bc6565b80156107085780601f106106dd57610100808354040283529160200191610708565b820191906000526020600020905b8154815290600101906020018083116106eb57829003601f168201915b50505050509080600601805461071d90615bc6565b80601f016020809104026020016040519081016040528092919081815260200182805461074990615bc6565b80156107965780601f1061076b57610100808354040283529160200191610796565b820191906000526020600020905b81548152906001019060200180831161077957829003601f168201915b5050505050908060070180546107ab90615bc6565b80601f01602080910402602001604051908101604052809291908181526020018280546107d790615bc6565b80156108245780601f106107f957610100808354040283529160200191610824565b820191906000526020600020905b81548152906001019060200180831161080757829003601f168201915b50505050509080600801805461083990615bc6565b80601f016020809104026020016040519081016040528092919081815260200182805461086590615bc6565b80156108b25780601f10610887576101008083540402835291602001916108b2565b820191906000526020600020905b81548152906001019060200180831161089557829003601f168201915b5050505050908060090160009054906101000a900460ff1690508a565b60036000803373ffffffffffffffffffffffffffffffffffffffff1673ffffffffffffffffffffffffffffffffffffffff16815260200190815260200160002060000160159054906101000a900460ff1661095f576040517f08c379a000000000000000000000000000000000000000000000000000000000815260040161095690615672565b60405180910390fd5b806003811115610998577f4e487b7100000000000000000000000000000000000000000000000000000000600052602160045260246000fd5b6000803373ffffffffffffffffffffffffffffffffffffffff1673ffffffffffffffffffffffffffffffffffffffff16815260200190815260200160002060000160149054906101000a900460ff166003811115610a1f577f4e487b7100000000000000000000000000000000000000000000000000000000600052602160045260246000fd5b14610a5f576040517f08c379a0000000000000000000000000000000000000000000000000000000008152600401610a56906156d2565b60405180910390fd5b6000803373ffffffffffffffffffffffffffffffffffffffff1673ffffffffffffffffffffffffffffffffffffffff16815260200190815260200160002060000160159054906101000a900460ff16610aed576040517f08c379a0000000000000000000000000000000000000000000000000000000008152600401610ae490615672565b60405180910390fd5b600187604051610afd91906153b2565b908152602001604051809103902060090160009054906101000a900460ff16610b5b576040517f08c379a0000000000000000000000000000000000000000000000000000000008152600401610b5290615592565b60405180910390fd5b600385604051610b6b91906153b2565b908152602001604051809103902060009054906101000a900460ff16610bc6576040517f08c379a0000000000000000000000000000000000000000000000000000000008152600401610bbd90615612565b60405180910390fd5b600482604051610bd691906153b2565b908152602001604051809103902060009054906101000a900460ff16610c31576040517f08c379a0000000000000000000000000000000000000000000000000000000008152600401610c2890615652565b60405180910390fd5b610ce4600188604051610c4491906153b2565b90815260200160405180910390206005018054610c6090615bc6565b80601f0160208091040260200160405190810160405280929190818152602001828054610c8c90615bc6565b8015610cd95780601f10610cae57610100808354040283529160200191610cd9565b820191906000526020600020905b815481529060010190602001808311610cbc57829003601f168201915b505050505086613ca1565b610d23576040517f08c379a0000000000000000000000000000000000000000000000000000000008152600401610d1a90615732565b60405180910390fd5b610e80600188604051610d3691906153b2565b90815260200160405180910390206004018054610d5290615bc6565b80601f0160208091040260200160405190810160405280929190818152602001828054610d7e90615bc6565b8015610dcb5780601f10610da057610100808354040283529160200191610dcb565b820191906000526020600020905b815481529060010190602001808311610dae57829003601f168201915b5050505050600189604051610de091906153b2565b90815260200160405180910390206005018054610dfc90615bc6565b80601f0160208091040260200160405190810160405280929190818152602001828054610e2890615bc6565b8015610e755780601f10610e4a57610100808354040283529160200191610e75565b820191906000526020600020905b815481529060010190602001808311610e5857829003601f168201915b505050505088613cdf565b610ebf576040517f08c379a0000000000000000000000000000000000000000000000000000000008152600401610eb690615712565b60405180910390fd5b610f72600188604051610ed291906153b2565b90815260200160405180910390206008018054610eee90615bc6565b80601f0160208091040260200160405190810160405280929190818152602001828054610f1a90615bc6565b8015610f675780601f10610f3c57610100808354040283529160200191610f67565b820191906000526020600020905b815481529060010190602001808311610f4a57829003601f168201915b505050505083613d13565b610fb1576040517f08c379a0000000000000000000000000000000000000000000000000000000008152600401610fa890615692565b60405180910390fd5b6000600188604051610fc391906153b2565b9081526020016040518091039020905086816004019080519060200190610feb9291906142e1565b50858160050190805190602001906110049291906142e1565b508481600601908051906020019061101d9291906142e1565b50838160070190805190602001906110369291906142e1565b508281600801908051906020019061104f9291906142e1565b5060028860405161106091906153b2565b90815260200160405180910390206040518060c001604052804281526020018981526020018881526020018781526020018681526020018581525090806001815401808255809150506001900390600052602060002090600602016000909190919091506000820151816000015560208201518160010190805190602001906110ea9291906142e1565b5060408201518160020190805190602001906111079291906142e1565b5060608201518160030190805190602001906111249291906142e1565b5060808201518160040190805190602001906111419291906142e1565b5060a082015181600501908051906020019061115e9291906142e1565b5050505050505050505050565b60606000803373ffffffffffffffffffffffffffffffffffffffff1673ffffffffffffffffffffffffffffffffffffffff16815260200190815260200160002060000160159054906101000a900460ff166111fb576040517f08c379a00000000000000000000000000000000000000000000000000000000081526004016111f290615672565b60405180910390fd5b6005805480602002602001604051908101604052809291908181526020016000905b828210156112c957838290600052602060002001805461123c90615bc6565b80601f016020809104026020016040519081016040528092919081815260200182805461126890615bc6565b80156112b55780601f1061128a576101008083540402835291602001916112b5565b820191906000526020600020905b81548152906001019060200180831161129857829003601f168201915b50505050508152602001906001019061121d565b50505050905090565b60085481565b6003818051602081018201805184825260208301602085012081835280955050505050506000915054906101000a900460ff1681565b6004818051602081018201805184825260208301602085012081835280955050505050506000915054906101000a900460ff1681565b6000803373ffffffffffffffffffffffffffffffffffffffff1673ffffffffffffffffffffffffffffffffffffffff16815260200190815260200160002060000160159054906101000a900460ff166113d2576040517f08c379a00000000000000000000000000000000000000000000000000000000081526004016113c990615672565b60405180910390fd5b6000600381111561140c577f4e487b7100000000000000000000000000000000000000000000000000000000600052602160045260246000fd5b6000803373ffffffffffffffffffffffffffffffffffffffff1673ffffffffffffffffffffffffffffffffffffffff16815260200190815260200160002060000160149054906101000a900460ff166003811115611493577f4e487b7100000000000000000000000000000000000000000000000000000000600052602160045260246000fd5b146114d3576040517f08c379a00000000000000000000000000000000000000000000000000000000081526004016114ca906155d2565b60405180910390fd5b6003816040516114e391906153b2565b908152602001604051809103902060009054906101000a900460ff161561153f576040517f08c379a000000000000000000000000000000000000000000000000000000000815260040161153690615792565b60405180910390fd5b600160038260405161155191906153b2565b908152602001604051809103902060006101000a81548160ff0219169083151502179055506005819080600181540180825580915050600190039060005260206000200160009091909190915090805190602001906115b19291906142e1565b5050565b6000803373ffffffffffffffffffffffffffffffffffffffff1673ffffffffffffffffffffffffffffffffffffffff16815260200190815260200160002060000160159054906101000a900460ff16611643576040517f08c379a000000000000000000000000000000000000000000000000000000000815260040161163a90615672565b60405180910390fd5b6000600381111561167d577f4e487b7100000000000000000000000000000000000000000000000000000000600052602160045260246000fd5b6000803373ffffffffffffffffffffffffffffffffffffffff1673ffffffffffffffffffffffffffffffffffffffff16815260200190815260200160002060000160149054906101000a900460ff166003811115611704577f4e487b7100000000000000000000000000000000000000000000000000000000600052602160045260246000fd5b14611744576040517f08c379a000000000000000000000000000000000000000000000000000000000815260040161173b906155d2565b60405180910390fd5b60038160405161175491906153b2565b908152602001604051809103902060009054906101000a900460ff166117af576040517f08c379a00000000000000000000000000000000000000000000000000000000081526004016117a6906156f2565b60405180910390fd5b6003816040516117bf91906153b2565b908152602001604051809103902060006101000a81549060ff021916905560005b6005805490508110156119735781805190602001206005828154811061182f577f4e487b7100000000000000000000000000000000000000000000000000000000600052603260045260246000fd5b90600052602060002001604051611846919061539b565b6040518091039020141561196057600560016005805490506118689190615ad6565b8154811061189f577f4e487b7100000000000000000000000000000000000000000000000000000000600052603260045260246000fd5b90600052602060002001600582815481106118e3577f4e487b7100000000000000000000000000000000000000000000000000000000600052603260045260246000fd5b906000526020600020019080546118f990615bc6565b611904929190614367565b50600580548061193d577f4e487b7100000000000000000000000000000000000000000000000000000000600052603160045260246000fd5b60019003818190600052602060002001600061195991906143f4565b9055611973565b808061196b90615bf8565b9150506117e0565b5050565b61197f614434565b8160018160405161199091906153b2565b908152602001604051809103902060090160009054906101000a900460ff166119ee576040517f08c379a00000000000000000000000000000000000000000000000000000000081526004016119e590615592565b60405180910390fd5b6000600182604051611a0091906153b2565b908152602001604051809103902060405180610140016040529081600082018054611a2a90615bc6565b80601f0160208091040260200160405190810160405280929190818152602001828054611a5690615bc6565b8015611aa35780601f10611a7857610100808354040283529160200191611aa3565b820191906000526020600020905b815481529060010190602001808311611a8657829003601f168201915b50505050508152602001600182018054611abc90615bc6565b80601f0160208091040260200160405190810160405280929190818152602001828054611ae890615bc6565b8015611b355780601f10611b0a57610100808354040283529160200191611b35565b820191906000526020600020905b815481529060010190602001808311611b1857829003601f168201915b50505050508152602001600282018054611b4e90615bc6565b80601f0160208091040260200160405190810160405280929190818152602001828054611b7a90615bc6565b8015611bc75780601f10611b9c57610100808354040283529160200191611bc7565b820191906000526020600020905b815481529060010190602001808311611baa57829003601f168201915b5050505050815260200160038201548152602001600482018054611bea90615bc6565b80601f0160208091040260200160405190810160405280929190818152602001828054611c1690615bc6565b8015611c635780601f10611c3857610100808354040283529160200191611c63565b820191906000526020600020905b815481529060010190602001808311611c4657829003601f168201915b50505050508152602001600582018054611c7c90615bc6565b80601f0160208091040260200160405190810160405280929190818152602001828054611ca890615bc6565b8015611cf55780601f10611cca57610100808354040283529160200191611cf5565b820191906000526020600020905b815481529060010190602001808311611cd857829003601f168201915b50505050508152602001600682018054611d0e90615bc6565b80601f0160208091040260200160405190810160405280929190818152602001828054611d3a90615bc6565b8015611d875780601f10611d5c57610100808354040283529160200191611d87565b820191906000526020600020905b815481529060010190602001808311611d6a57829003601f168201915b50505050508152602001600782018054611da090615bc6565b80601f0160208091040260200160405190810160405280929190818152602001828054611dcc90615bc6565b8015611e195780601f10611dee57610100808354040283529160200191611e19565b820191906000526020600020905b815481529060010190602001808311611dfc57829003601f168201915b50505050508152602001600882018054611e3290615bc6565b80601f0160208091040260200160405190810160405280929190818152602001828054611e5e90615bc6565b8015611eab5780601f10611e8057610100808354040283529160200191611eab565b820191906000526020600020905b815481529060010190602001808311611e8e57829003601f168201915b505050505081526020016009820160009054906101000a900460ff161515151581525050905060016003811115611f0b577f4e487b7100000000000000000000000000000000000000000000000000000000600052602160045260246000fd5b6000803373ffffffffffffffffffffffffffffffffffffffff1673ffffffffffffffffffffffffffffffffffffffff16815260200190815260200160002060000160149054906101000a900460ff166003811115611f92577f4e487b7100000000000000000000000000000000000000000000000000000000600052602160045260246000fd5b14156120c4576040518060400160405280600881526020017f537570706c69657200000000000000000000000000000000000000000000000081525080519060200120816080015180519060200120148061203357506040518060400160405280600981526020017f5472616e73706f72740000000000000000000000000000000000000000000000815250805190602001208160a0015180519060200120145b8061208457506040518060400160405280600c81526020017f4d616e7566616374757265720000000000000000000000000000000000000000815250805190602001208160a0015180519060200120145b6120c3576040517f08c379a00000000000000000000000000000000000000000000000000000000081526004016120ba90615772565b60405180910390fd5b5b600260038111156120fe577f4e487b7100000000000000000000000000000000000000000000000000000000600052602160045260246000fd5b6000803373ffffffffffffffffffffffffffffffffffffffff1673ffffffffffffffffffffffffffffffffffffffff16815260200190815260200160002060000160149054906101000a900460ff166003811115612185577f4e487b7100000000000000000000000000000000000000000000000000000000600052602160045260246000fd5b1415612308576040518060400160405280600881526020017f537570706c69657200000000000000000000000000000000000000000000000081525080519060200120816080015180519060200120148061222657506040518060400160405280600981526020017f5472616e73706f72740000000000000000000000000000000000000000000000815250805190602001208160a0015180519060200120145b8061227757506040518060400160405280600c81526020017f4d616e7566616374757265720000000000000000000000000000000000000000815250805190602001208160a0015180519060200120145b806122c857506040518060400160405280601181526020017f4c6f67697374696357617265686f757365000000000000000000000000000000815250805190602001208160a0015180519060200120145b612307576040517f08c379a00000000000000000000000000000000000000000000000000000000081526004016122fe906155f2565b60405180910390fd5b5b6000803373ffffffffffffffffffffffffffffffffffffffff1673ffffffffffffffffffffffffffffffffffffffff16815260200190815260200160002060000160159054906101000a900460ff16612396576040517f08c379a000000000000000000000000000000000000000000000000000000000815260040161238d90615672565b60405180910390fd5b6001846040516123a691906153b2565b9081526020016040518091039020604051806101400160405290816000820180546123d090615bc6565b80601f01602080910402602001604051908101604052809291908181526020018280546123fc90615bc6565b80156124495780601f1061241e57610100808354040283529160200191612449565b820191906000526020600020905b81548152906001019060200180831161242c57829003601f168201915b5050505050815260200160018201805461246290615bc6565b80601f016020809104026020016040519081016040528092919081815260200182805461248e90615bc6565b80156124db5780601f106124b0576101008083540402835291602001916124db565b820191906000526020600020905b8154815290600101906020018083116124be57829003601f168201915b505050505081526020016002820180546124f490615bc6565b80601f016020809104026020016040519081016040528092919081815260200182805461252090615bc6565b801561256d5780601f106125425761010080835404028352916020019161256d565b820191906000526020600020905b81548152906001019060200180831161255057829003601f168201915b505050505081526020016003820154815260200160048201805461259090615bc6565b80601f01602080910402602001604051908101604052809291908181526020018280546125bc90615bc6565b80156126095780601f106125de57610100808354040283529160200191612609565b820191906000526020600020905b8154815290600101906020018083116125ec57829003601f168201915b5050505050815260200160058201805461262290615bc6565b80601f016020809104026020016040519081016040528092919081815260200182805461264e90615bc6565b801561269b5780601f106126705761010080835404028352916020019161269b565b820191906000526020600020905b81548152906001019060200180831161267e57829003601f168201915b505050505081526020016006820180546126b490615bc6565b80601f01602080910402602001604051908101604052809291908181526020018280546126e090615bc6565b801561272d5780601f106127025761010080835404028352916020019161272d565b820191906000526020600020905b81548152906001019060200180831161271057829003601f168201915b5050505050815260200160078201805461274690615bc6565b80601f016020809104026020016040519081016040528092919081815260200182805461277290615bc6565b80156127bf5780601f10612794576101008083540402835291602001916127bf565b820191906000526020600020905b8154815290600101906020018083116127a257829003601f168201915b505050505081526020016008820180546127d890615bc6565b80601f016020809104026020016040519081016040528092919081815260200182805461280490615bc6565b80156128515780601f1061282657610100808354040283529160200191612851565b820191906000526020600020905b81548152906001019060200180831161283457829003601f168201915b505050505081526020016009820160009054906101000a900460ff16151515158152505092505050919050565b6005818154811061288e57600080fd5b9060005260206000200160009150905080546128a990615bc6565b80601f01602080910402602001604051908101604052809291908181526020018280546128d590615bc6565b80156129225780601f106128f757610100808354040283529160200191612922565b820191906000526020600020905b81548152906001019060200180831161290557829003601f168201915b505050505081565b600760009054906101000a900473ffffffffffffffffffffffffffffffffffffffff1681565b600282805160208101820180518482526020830160208501208183528095505050505050818154811061298257600080fd5b9060005260206000209060060201600091509150508060000154908060010180546129ac90615bc6565b80601f01602080910402602001604051908101604052809291908181526020018280546129d890615bc6565b8015612a255780601f106129fa57610100808354040283529160200191612a25565b820191906000526020600020905b815481529060010190602001808311612a0857829003601f168201915b505050505090806002018054612a3a90615bc6565b80601f0160208091040260200160405190810160405280929190818152602001828054612a6690615bc6565b8015612ab35780601f10612a8857610100808354040283529160200191612ab3565b820191906000526020600020905b815481529060010190602001808311612a9657829003601f168201915b505050505090806003018054612ac890615bc6565b80601f0160208091040260200160405190810160405280929190818152602001828054612af490615bc6565b8015612b415780601f10612b1657610100808354040283529160200191612b41565b820191906000526020600020905b815481529060010190602001808311612b2457829003601f168201915b505050505090806004018054612b5690615bc6565b80601f0160208091040260200160405190810160405280929190818152602001828054612b8290615bc6565b8015612bcf5780601f10612ba457610100808354040283529160200191612bcf565b820191906000526020600020905b815481529060010190602001808311612bb257829003601f168201915b505050505090806005018054612be490615bc6565b80601f0160208091040260200160405190810160405280929190818152602001828054612c1090615bc6565b8015612c5d5780601f10612c3257610100808354040283529160200191612c5d565b820191906000526020600020905b815481529060010190602001808311612c4057829003601f168201915b5050505050905086565b6000803373ffffffffffffffffffffffffffffffffffffffff1673ffffffffffffffffffffffffffffffffffffffff16815260200190815260200160002060000160159054906101000a900460ff16612cf5576040517f08c379a0000000000000000000000000000000000000000000000000000000008152600401612cec90615672565b60405180910390fd5b60006003811115612d2f577f4e487b7100000000000000000000000000000000000000000000000000000000600052602160045260246000fd5b6000803373ffffffffffffffffffffffffffffffffffffffff1673ffffffffffffffffffffffffffffffffffffffff16815260200190815260200160002060000160149054906101000a900460ff166003811115612db6577f4e487b7100000000000000000000000000000000000000000000000000000000600052602160045260246000fd5b14612df6576040517f08c379a0000000000000000000000000000000000000000000000000000000008152600401612ded906155d2565b60405180910390fd5b6000808273ffffffffffffffffffffffffffffffffffffffff1673ffffffffffffffffffffffffffffffffffffffff168152602001908152602001600020600080820160006101000a81549073ffffffffffffffffffffffffffffffffffffffff02191690556000820160146101000a81549060ff02191690556000820160156101000a81549060ff0219169055505050565b6000803373ffffffffffffffffffffffffffffffffffffffff1673ffffffffffffffffffffffffffffffffffffffff16815260200190815260200160002060000160159054906101000a900460ff16612f17576040517f08c379a0000000000000000000000000000000000000000000000000000000008152600401612f0e90615672565b60405180910390fd5b60006003811115612f51577f4e487b7100000000000000000000000000000000000000000000000000000000600052602160045260246000fd5b6000803373ffffffffffffffffffffffffffffffffffffffff1673ffffffffffffffffffffffffffffffffffffffff16815260200190815260200160002060000160149054906101000a900460ff166003811115612fd8577f4e487b7100000000000000000000000000000000000000000000000000000000600052602160045260246000fd5b14613018576040517f08c379a000000000000000000000000000000000000000000000000000000000815260040161300f906155d2565b60405180910390fd5b60405180606001604052808373ffffffffffffffffffffffffffffffffffffffff168152602001826003811115613078577f4e487b7100000000000000000000000000000000000000000000000000000000600052602160045260246000fd5b8152602001600115158152506000808473ffffffffffffffffffffffffffffffffffffffff1673ffffffffffffffffffffffffffffffffffffffff16815260200190815260200160002060008201518160000160006101000a81548173ffffffffffffffffffffffffffffffffffffffff021916908373ffffffffffffffffffffffffffffffffffffffff16021790555060208201518160000160146101000a81548160ff0219169083600381111561315a577f4e487b7100000000000000000000000000000000000000000000000000000000600052602160045260246000fd5b021790555060408201518160000160156101000a81548160ff0219169083151502179055509050505050565b60006020528060005260406000206000915090508060000160009054906101000a900473ffffffffffffffffffffffffffffffffffffffff16908060000160149054906101000a900460ff16908060000160159054906101000a900460ff16905083565b6000803373ffffffffffffffffffffffffffffffffffffffff1673ffffffffffffffffffffffffffffffffffffffff16815260200190815260200160002060000160159054906101000a900460ff16613278576040517f08c379a000000000000000000000000000000000000000000000000000000000815260040161326f90615672565b60405180910390fd5b60038560405161328891906153b2565b908152602001604051809103902060009054906101000a900460ff166132e3576040517f08c379a00000000000000000000000000000000000000000000000000000000081526004016132da906155b2565b60405180910390fd5b6003846040516132f391906153b2565b908152602001604051809103902060009054906101000a900460ff1661334e576040517f08c379a000000000000000000000000000000000000000000000000000000000815260040161334590615752565b60405180910390fd5b60048160405161335e91906153b2565b908152602001604051809103902060009054906101000a900460ff166133b9576040517f08c379a00000000000000000000000000000000000000000000000000000000081526004016133b090615652565b60405180910390fd5b6133c38585613ca1565b613402576040517f08c379a00000000000000000000000000000000000000000000000000000000081526004016133f9906156b2565b60405180910390fd5b600061340f600854613ea1565b60405160200161341f91906153c9565b60405160208183030381529060405290506008600081548092919061344390615bf8565b919050555060018160405161345891906153b2565b908152602001604051809103902060090160009054906101000a900460ff16156134b7576040517f08c379a00000000000000000000000000000000000000000000000000000000081526004016134ae90615632565b60405180910390fd5b6040518061014001604052808281526020018a81526020018981526020018881526020018781526020018681526020018581526020018481526020018381526020016001151581525060018260405161351091906153b2565b9081526020016040518091039020600082015181600001908051906020019061353a9291906142e1565b5060208201518160010190805190602001906135579291906142e1565b5060408201518160020190805190602001906135749291906142e1565b5060608201518160030155608082015181600401908051906020019061359b9291906142e1565b5060a08201518160050190805190602001906135b89291906142e1565b5060c08201518160060190805190602001906135d59291906142e1565b5060e08201518160070190805190602001906135f29291906142e1565b506101008201518160080190805190602001906136109291906142e1565b506101208201518160090160006101000a81548160ff0219169083151502179055509050506006819080600181540180825580915050600190039060005260206000200160009091909190915090805190602001906136709291906142e1565b5060028160405161368191906153b2565b90815260200160405180910390206040518060c0016040528042815260200188815260200187815260200186815260200185815260200184815250908060018154018082558091505060019003906000526020600020906006020160009091909190915060008201518160000155602082015181600101908051906020019061370b9291906142e1565b5060408201518160020190805190602001906137289291906142e1565b5060608201518160030190805190602001906137459291906142e1565b5060808201518160040190805190602001906137629291906142e1565b5060a082015181600501908051906020019061377f9291906142e1565b5050507f276b58cbf13b39452b15dc9de0fcf4b0126e4ee90c5cddb1f0c44b9556277dad816040516137b1919061549c565b60405180910390a1505050505050505050565b600681815481106137d457600080fd5b9060005260206000200160009150905080546137ef90615bc6565b80601f016020809104026020016040519081016040528092919081815260200182805461381b90615bc6565b80156138685780601f1061383d57610100808354040283529160200191613868565b820191906000526020600020905b81548152906001019060200180831161384b57829003601f168201915b505050505081565b60606000803373ffffffffffffffffffffffffffffffffffffffff1673ffffffffffffffffffffffffffffffffffffffff16815260200190815260200160002060000160159054906101000a900460ff16613900576040517f08c379a00000000000000000000000000000000000000000000000000000000081526004016138f790615672565b60405180910390fd5b60028260405161391091906153b2565b9081526020016040518091039020805480602002602001604051908101604052809291908181526020016000905b82821015613c5457838290600052602060002090600602016040518060c00160405290816000820154815260200160018201805461397b90615bc6565b80601f01602080910402602001604051908101604052809291908181526020018280546139a790615bc6565b80156139f45780601f106139c9576101008083540402835291602001916139f4565b820191906000526020600020905b8154815290600101906020018083116139d757829003601f168201915b50505050508152602001600282018054613a0d90615bc6565b80601f0160208091040260200160405190810160405280929190818152602001828054613a3990615bc6565b8015613a865780601f10613a5b57610100808354040283529160200191613a86565b820191906000526020600020905b815481529060010190602001808311613a6957829003601f168201915b50505050508152602001600382018054613a9f90615bc6565b80601f0160208091040260200160405190810160405280929190818152602001828054613acb90615bc6565b8015613b185780601f10613aed57610100808354040283529160200191613b18565b820191906000526020600020905b815481529060010190602001808311613afb57829003601f168201915b50505050508152602001600482018054613b3190615bc6565b80601f0160208091040260200160405190810160405280929190818152602001828054613b5d90615bc6565b8015613baa5780601f10613b7f57610100808354040283529160200191613baa565b820191906000526020600020905b815481529060010190602001808311613b8d57829003601f168201915b50505050508152602001600582018054613bc390615bc6565b80601f0160208091040260200160405190810160405280929190818152602001828054613bef90615bc6565b8015613c3c5780601f10613c1157610100808354040283529160200191613c3c565b820191906000526020600020905b815481529060010190602001808311613c1f57829003601f168201915b5050505050815250508152602001906001019061393e565b505050509050919050565b6000816003811115613c9a577f4e487b7100000000000000000000000000000000000000000000000000000000600052602160045260246000fd5b9050919050565b600080613cad84614076565b90506000613cba84614076565b905081811480613cd55750600182613cd291906159be565b81145b9250505092915050565b6000838051906020012082805190602001201480613d0a575082805190602001208280519060200120145b90509392505050565b600080613d1f8461414f565b90506000613d2c8461414f565b9050816003811115613d67577f4e487b7100000000000000000000000000000000000000000000000000000000600052602160045260246000fd5b816003811115613da0577f4e487b7100000000000000000000000000000000000000000000000000000000600052602160045260246000fd5b1480613e9757506001826003811115613de2577f4e487b7100000000000000000000000000000000000000000000000000000000600052602160045260246000fd5b613dec91906159be565b6003811115613e24577f4e487b7100000000000000000000000000000000000000000000000000000000600052602160045260246000fd5b6003811115613e5c577f4e487b7100000000000000000000000000000000000000000000000000000000600052602160045260246000fd5b816003811115613e95577f4e487b7100000000000000000000000000000000000000000000000000000000600052602160045260246000fd5b145b9250505092915050565b60606000821415613ee9576040518060400160405280600181526020017f30000000000000000000000000000000000000000000000000000000000000008152509050614071565b600082905060005b60008214613f1b578080613f0490615bf8565b915050600a82613f149190615a4b565b9150613ef1565b60008167ffffffffffffffff811115613f5d577f4e487b7100000000000000000000000000000000000000000000000000000000600052604160045260246000fd5b6040519080825280601f01601f191660200182016040528015613f8f5781602001600182028036833780820191505090505b50905060008290505b6000861461406957600181613fad9190615ad6565b90506000600a8088613fbf9190615a4b565b613fc99190615a7c565b87613fd49190615ad6565b6030613fe09190615a14565b905060008160f81b905080848481518110614024577f4e487b7100000000000000000000000000000000000000000000000000000000600052603260045260246000fd5b60200101907effffffffffffffffffffffffffffffffffffffffffffffffffffffffffffff1916908160001a905350600a886140609190615a4b565b97505050613f98565b819450505050505b919050565b600080600090505b60058054905081101561410e578280519060200120600582815481106140cd577f4e487b7100000000000000000000000000000000000000000000000000000000600052603260045260246000fd5b906000526020600020016040516140e4919061539b565b604051809103902014156140fb578091505061414a565b808061410690615bf8565b91505061407e565b506040517f08c379a0000000000000000000000000000000000000000000000000000000008152600401614141906157b2565b60405180910390fd5b919050565b60006040518060400160405280600781526020017f437265617465640000000000000000000000000000000000000000000000000081525080519060200120828051906020012014156141a557600090506142dc565b6040518060400160405280600781526020017f536869707065640000000000000000000000000000000000000000000000000081525080519060200120828051906020012014156141f957600190506142dc565b6040518060400160405280600981526020017f496e5472616e7369740000000000000000000000000000000000000000000000815250805190602001208280519060200120141561424d57600290506142dc565b6040518060400160405280600981526020017f44656c697665726564000000000000000000000000000000000000000000000081525080519060200120828051906020012014156142a157600390506142dc565b6040517f08c379a00000000000000000000000000000000000000000000000000000000081526004016142d390615652565b60405180910390fd5b919050565b8280546142ed90615bc6565b90600052602060002090601f01602090048101928261430f5760008555614356565b82601f1061432857805160ff1916838001178555614356565b82800160010185558215614356579182015b8281111561435557825182559160200191906001019061433a565b5b5090506143639190614489565b5090565b82805461437390615bc6565b90600052602060002090601f01602090048101928261439557600085556143e3565b82601f106143a657805485556143e3565b828001600101855582156143e357600052602060002091601f016020900482015b828111156143e25782548255916001019190600101906143c7565b5b5090506143f09190614489565b5090565b50805461440090615bc6565b6000825580601f106144125750614431565b601f0160209004906000526020600020908101906144309190614489565b5b50565b6040518061014001604052806060815260200160608152602001606081526020016000815260200160608152602001606081526020016060815260200160608152602001606081526020016000151581525090565b5b808211156144a257600081600090555060010161448a565b5090565b60006144b96144b4846158c4565b615893565b9050828152602081018484840111156144d157600080fd5b6144dc848285615b84565b509392505050565b6000813590506144f381615d51565b92915050565b60008135905061450881615d68565b92915050565b60008135905061451d81615d78565b92915050565b600082601f83011261453457600080fd5b81356145448482602086016144a6565b91505092915050565b60008135905061455c81615d88565b92915050565b60006020828403121561457457600080fd5b6000614582848285016144e4565b91505092915050565b6000806040838503121561459e57600080fd5b60006145ac858286016144e4565b92505060206145bd8582860161450e565b9150509250929050565b6000602082840312156145d957600080fd5b60006145e7848285016144f9565b91505092915050565b60006020828403121561460257600080fd5b600082013567ffffffffffffffff81111561461c57600080fd5b61462884828501614523565b91505092915050565b60008060008060008060c0878903121561464a57600080fd5b600087013567ffffffffffffffff81111561466457600080fd5b61467089828a01614523565b965050602087013567ffffffffffffffff81111561468d57600080fd5b61469989828a01614523565b955050604087013567ffffffffffffffff8111156146b657600080fd5b6146c289828a01614523565b945050606087013567ffffffffffffffff8111156146df57600080fd5b6146eb89828a01614523565b935050608087013567ffffffffffffffff81111561470857600080fd5b61471489828a01614523565b92505060a087013567ffffffffffffffff81111561473157600080fd5b61473d89828a01614523565b9150509295509295509295565b600080600080600080600080610100898b03121561476757600080fd5b600089013567ffffffffffffffff81111561478157600080fd5b61478d8b828c01614523565b985050602089013567ffffffffffffffff8111156147aa57600080fd5b6147b68b828c01614523565b97505060406147c78b828c0161454d565b965050606089013567ffffffffffffffff8111156147e457600080fd5b6147f08b828c01614523565b955050608089013567ffffffffffffffff81111561480d57600080fd5b6148198b828c01614523565b94505060a089013567ffffffffffffffff81111561483657600080fd5b6148428b828c01614523565b93505060c089013567ffffffffffffffff81111561485f57600080fd5b61486b8b828c01614523565b92505060e089013567ffffffffffffffff81111561488857600080fd5b6148948b828c01614523565b9150509295985092959890939650565b600080604083850312156148b757600080fd5b600083013567ffffffffffffffff8111156148d157600080fd5b6148dd85828601614523565b92505060206148ee8582860161454d565b9150509250929050565b60006020828403121561490a57600080fd5b60006149188482850161454d565b91505092915050565b600061492d8383614aee565b905092915050565b600061494183836152d8565b905092915050565b61495281615b0a565b82525050565b600061496382615929565b61496d8185615964565b93508360208202850161497f856158f4565b8060005b858110156149bb578484038952815161499c8582614921565b94506149a78361594a565b925060208a01995050600181019050614983565b50829750879550505050505092915050565b60006149d882615934565b6149e28185615975565b9350836020820285016149f485615904565b8060005b85811015614a305784840389528151614a118582614935565b9450614a1c83615957565b925060208a019950506001810190506149f8565b50829750879550505050505092915050565b614a4b81615b1c565b82525050565b614a5a81615b1c565b82525050565b60008154614a6d81615bc6565b614a778186615986565b94506001821660008114614a925760018114614aa357614ad6565b60ff19831686528186019350614ad6565b614aac85615914565b60005b83811015614ace57815481890152600182019150602081019050614aaf565b838801955050505b50505092915050565b614ae881615b72565b82525050565b6000614af98261593f565b614b038185615991565b9350614b13818560208601615b93565b614b1c81615d2c565b840191505092915050565b6000614b328261593f565b614b3c81856159a2565b9350614b4c818560208601615b93565b614b5581615d2c565b840191505092915050565b6000614b6b8261593f565b614b7581856159b3565b9350614b85818560208601615b93565b80840191505092915050565b6000614b9e6016836159a2565b91507f50726f6475637420646f6573206e6f74206578697374000000000000000000006000830152602082019050919050565b6000614bde6017836159a2565b91507f496e76616c6964206f726967696e206c6f636174696f6e0000000000000000006000830152602082019050919050565b6000614c1e6031836159a2565b91507f4163636573732064656e6965643a204f6e6c792041646d696e2063616e20706560008301527f72666f726d207468697320616374696f6e0000000000000000000000000000006020830152604082019050919050565b6000614c846050836159a2565b91507f4163636573732064656e6965643a2050726f64756374206c6f636174696f6e2060008301527f6973206265796f6e64204c6f67697374696357617265686f75736520666f722060208301527f4c6f676973746963456d706c6f796565000000000000000000000000000000006040830152606082019050919050565b6000614d106014836159a2565b91507f496e76616c6964206e6577206c6f636174696f6e0000000000000000000000006000830152602082019050919050565b6000614d506019836159a2565b91507f50726f6475637420494420616c726561647920657869737473000000000000006000830152602082019050919050565b6000614d90600e836159a2565b91507f496e76616c6964207374617475730000000000000000000000000000000000006000830152602082019050919050565b6000614dd06016836159a2565b91507f55736572206973206e6f742072656769737465726564000000000000000000006000830152602082019050919050565b6000614e106001836159b3565b91507f50000000000000000000000000000000000000000000000000000000000000006000830152600182019050919050565b6000614e50602b836159a2565b91507f496e76616c6964207374617475733a204e6f7420746865206e657874206f722060008301527f73616d65207374617475730000000000000000000000000000000000000000006020830152604082019050919050565b6000614eb6602a836159a2565b91507f496e76616c69642064657374696e6174696f6e3a204e6f7420746865206e657860008301527f74206c6f636174696f6e000000000000000000000000000000000000000000006020830152604082019050919050565b6000614f1c601c836159a2565b91507f4163636573732064656e6965643a20526f6c65206d69736d61746368000000006000830152602082019050919050565b6000614f5c6017836159a2565b91507f4c6f636174696f6e20646f6573206e6f742065786973740000000000000000006000830152602082019050919050565b6000614f9c6047836159a2565b91507f496e76616c6964206f726967696e3a204d7573742062652073616d652061732060008301527f70726576696f7573206f726967696e206f722070726576696f7573206465737460208301527f696e6174696f6e000000000000000000000000000000000000000000000000006040830152606082019050919050565b60006150286032836159a2565b91507f496e76616c69642064657374696e6174696f6e3a204e6f7420746865206e657860008301527f74206f722073616d65206c6f636174696f6e00000000000000000000000000006020830152604082019050919050565b600061508e601c836159a2565b91507f496e76616c69642064657374696e6174696f6e206c6f636174696f6e000000006000830152602082019050919050565b60006150ce6043836159a2565b91507f4163636573732064656e6965643a2050726f64756374206c6f636174696f6e2060008301527f6973206265796f6e64204d616e75666163747572657220666f7220537570706c60208301527f69657200000000000000000000000000000000000000000000000000000000006040830152606082019050919050565b600061515a6017836159a2565b91507f4c6f636174696f6e20616c7265616479206578697374730000000000000000006000830152602082019050919050565b600061519a6012836159a2565b91507f4c6f636174696f6e206e6f7420666f756e6400000000000000000000000000006000830152602082019050919050565b60006101408301600083015184820360008601526151eb8282614aee565b915050602083015184820360208601526152058282614aee565b9150506040830151848203604086015261521f8282614aee565b9150506060830151615234606086018261537d565b506080830151848203608086015261524c8282614aee565b91505060a083015184820360a08601526152668282614aee565b91505060c083015184820360c08601526152808282614aee565b91505060e083015184820360e086015261529a8282614aee565b9150506101008301518482036101008601526152b68282614aee565b9150506101208301516152cd610120860182614a42565b508091505092915050565b600060c0830160008301516152f0600086018261537d565b50602083015184820360208601526153088282614aee565b915050604083015184820360408601526153228282614aee565b9150506060830151848203606086015261533c8282614aee565b915050608083015184820360808601526153568282614aee565b91505060a083015184820360a08601526153708282614aee565b9150508091505092915050565b61538681615b5b565b82525050565b61539581615b5b565b82525050565b60006153a78284614a60565b915081905092915050565b60006153be8284614b60565b915081905092915050565b60006153d482614e03565b91506153e08284614b60565b915081905092915050565b60006020820190506154006000830184614949565b92915050565b600060608201905061541b6000830186614949565b6154286020830185614adf565b6154356040830184614a51565b949350505050565b600060208201905081810360008301526154578184614958565b905092915050565b6000602082019050818103600083015261547981846149cd565b905092915050565b60006020820190506154966000830184614a51565b92915050565b600060208201905081810360008301526154b68184614b27565b905092915050565b60006101408201905081810360008301526154d9818d614b27565b905081810360208301526154ed818c614b27565b90508181036040830152615501818b614b27565b9050615510606083018a61538c565b81810360808301526155228189614b27565b905081810360a08301526155368188614b27565b905081810360c083015261554a8187614b27565b905081810360e083015261555e8186614b27565b90508181036101008301526155738185614b27565b9050615583610120830184614a51565b9b9a5050505050505050505050565b600060208201905081810360008301526155ab81614b91565b9050919050565b600060208201905081810360008301526155cb81614bd1565b9050919050565b600060208201905081810360008301526155eb81614c11565b9050919050565b6000602082019050818103600083015261560b81614c77565b9050919050565b6000602082019050818103600083015261562b81614d03565b9050919050565b6000602082019050818103600083015261564b81614d43565b9050919050565b6000602082019050818103600083015261566b81614d83565b9050919050565b6000602082019050818103600083015261568b81614dc3565b9050919050565b600060208201905081810360008301526156ab81614e43565b9050919050565b600060208201905081810360008301526156cb81614ea9565b9050919050565b600060208201905081810360008301526156eb81614f0f565b9050919050565b6000602082019050818103600083015261570b81614f4f565b9050919050565b6000602082019050818103600083015261572b81614f8f565b9050919050565b6000602082019050818103600083015261574b8161501b565b9050919050565b6000602082019050818103600083015261576b81615081565b9050919050565b6000602082019050818103600083015261578b816150c1565b9050919050565b600060208201905081810360008301526157ab8161514d565b9050919050565b600060208201905081810360008301526157cb8161518d565b9050919050565b600060208201905081810360008301526157ec81846151cd565b905092915050565b6000602082019050615809600083018461538c565b92915050565b600060c082019050615824600083018961538c565b81810360208301526158368188614b27565b9050818103604083015261584a8187614b27565b9050818103606083015261585e8186614b27565b905081810360808301526158728185614b27565b905081810360a08301526158868184614b27565b9050979650505050505050565b6000604051905081810181811067ffffffffffffffff821117156158ba576158b9615cfd565b5b8060405250919050565b600067ffffffffffffffff8211156158df576158de615cfd565b5b601f19601f8301169050602081019050919050565b6000819050602082019050919050565b6000819050602082019050919050565b60008190508160005260206000209050919050565b600081519050919050565b600081519050919050565b600081519050919050565b6000602082019050919050565b6000602082019050919050565b600082825260208201905092915050565b600082825260208201905092915050565b600081905092915050565b600082825260208201905092915050565b600082825260208201905092915050565b600081905092915050565b60006159c982615b5b565b91506159d483615b5b565b9250827fffffffffffffffffffffffffffffffffffffffffffffffffffffffffffffffff03821115615a0957615a08615c41565b5b828201905092915050565b6000615a1f82615b65565b9150615a2a83615b65565b92508260ff03821115615a4057615a3f615c41565b5b828201905092915050565b6000615a5682615b5b565b9150615a6183615b5b565b925082615a7157615a70615c70565b5b828204905092915050565b6000615a8782615b5b565b9150615a9283615b5b565b9250817fffffffffffffffffffffffffffffffffffffffffffffffffffffffffffffffff0483118215151615615acb57615aca615c41565b5b828202905092915050565b6000615ae182615b5b565b9150615aec83615b5b565b925082821015615aff57615afe615c41565b5b828203905092915050565b6000615b1582615b3b565b9050919050565b60008115159050919050565b6000819050615b3682615d3d565b919050565b600073ffffffffffffffffffffffffffffffffffffffff82169050919050565b6000819050919050565b600060ff82169050919050565b6000615b7d82615b28565b9050919050565b82818337600083830152505050565b60005b83811015615bb1578082015181840152602081019050615b96565b83811115615bc0576000848401525b50505050565b60006002820490506001821680615bde57607f821691505b60208210811415615bf257615bf1615cce565b5b50919050565b6000615c0382615b5b565b91507fffffffffffffffffffffffffffffffffffffffffffffffffffffffffffffffff821415615c3657615c35615c41565b5b600182019050919050565b7f4e487b7100000000000000000000000000000000000000000000000000000000600052601160045260246000fd5b7f4e487b7100000000000000000000000000000000000000000000000000000000600052601260045260246000fd5b7f4e487b7100000000000000000000000000000000000000000000000000000000600052602160045260246000fd5b7f4e487b7100000000000000000000000000000000000000000000000000000000600052602260045260246000fd5b7f4e487b7100000000000000000000000000000000000000000000000000000000600052604160045260246000fd5b6000601f19601f8301169050919050565b60048110615d4e57615d4d615c9f565b5b50565b615d5a81615b0a565b8114615d6557600080fd5b50565b60048110615d7557600080fd5b50565b60048110615d8557600080fd5b50565b615d9181615b5b565b8114615d9c57600080fd5b5056fea2646970667358221220c556688f1038627e247b087a534ee98bd231f01f40ff0d06b3dd55be10bfaa0a64736f6c63430008000033",
  "immutableReferences": {},
  "source": "// SPDX-License-Identifier: GPL-3.0\r\npragma solidity ^0.8.0;\r\n\r\ncontract PharmaChain {\r\n\r\n    enum Role { Admin, Supplier, LogisticEmployee, Inspector }\r\n\r\n    enum Location { Supplier, Transport, Manufacturer, LogisticWarehouse, Distributor, PharmacyWarehouse }\r\n\r\n    enum ProductStatus { Created, Shipped, InTransit, Delivered }\r\n\r\n    struct Product {\r\n        string id;\r\n        string name;\r\n        string manufacturer;\r\n        uint256 quantity;\r\n        string origin;\r\n        string destination;\r\n        string date_of_departure;\r\n        string expected_arrival_date;\r\n        string status;\r\n        bool exists;\r\n    }\r\n\r\n    struct ShipmentHistory {\r\n        uint256 timestamp;\r\n        string origin;\r\n        string destination;\r\n        string date_of_departure;\r\n        string expected_arrival_date;\r\n        string status;\r\n    }\r\n\r\n    struct User {\r\n        address userAddress;\r\n        Role role;\r\n        bool exists; // To check if the user is registered\r\n    }\r\n\r\n    struct ProductDetails {\r\n        string id;\r\n        string name;\r\n        string manufacturer;\r\n        uint256 quantity;\r\n        string origin;\r\n        string destination;\r\n        string date_of_departure;\r\n        string expected_arrival_date;\r\n        string status;\r\n    }\r\n\r\n    mapping(address => User) public users;\r\n    mapping(string => Product) public products;\r\n    mapping(string => ShipmentHistory[]) public shipmentHistories;\r\n    mapping(string => bool) public locations;\r\n    mapping(string => bool) public statuses;\r\n\r\n    string[] public locationList;\r\n    string[] public productIds;\r\n\r\n    address public owner;\r\n    uint256 public productCounter;\r\n\r\n    constructor() {\r\n        owner = msg.sender;\r\n        users[owner] = User(owner, Role.Admin, true);\r\n\r\n        // Initialize the locations mapping and locationList\r\n        _addInitialLocations(\"Supplier\");\r\n        _addInitialLocations(\"Transport\");\r\n        _addInitialLocations(\"Manufacturer\");\r\n        _addInitialLocations(\"LogisticWarehouse\");\r\n        _addInitialLocations(\"Distributor\");\r\n        _addInitialLocations(\"PharmacyWarehouse\");\r\n\r\n        statuses[\"Created\"] = true;\r\n        statuses[\"Shipped\"] = true;\r\n        statuses[\"InTransit\"] = true;\r\n        statuses[\"Delivered\"] = true;\r\n    }\r\n\r\n    modifier onlyRole(Role _role) {\r\n        require(users[msg.sender].exists, \"User is not registered\");\r\n        require(users[msg.sender].role == _role, \"Access denied: Role mismatch\");\r\n        _;\r\n    }\r\n\r\n    modifier onlyAdmin() {\r\n        require(users[msg.sender].exists, \"User is not registered\");\r\n        require(users[msg.sender].role == Role.Admin, \"Access denied: Only Admin can perform this action\");\r\n        _;\r\n    }\r\n\r\n    modifier onlyRegisteredUser() {\r\n        require(users[msg.sender].exists, \"User is not registered\");\r\n        _;\r\n    }\r\n\r\n    // Function to add initial locations during contract deployment\r\n    function _addInitialLocations(string memory _location) private {\r\n        locations[_location] = true;\r\n        locationList.push(_location);\r\n    }\r\n\r\n    function addUser(address _userAddress, Role _role) public onlyAdmin {\r\n        users[_userAddress] = User(_userAddress, _role, true);\r\n    }\r\n\r\n    function removeUser(address _userAddress) public onlyAdmin {\r\n        delete users[_userAddress];\r\n    }\r\n\r\n    function addLocation(string memory _location) public onlyAdmin {\r\n        require(!locations[_location], \"Location already exists\");\r\n        locations[_location] = true;\r\n        locationList.push(_location);\r\n    }\r\n\r\n    function removeLocation(string memory _location) public onlyAdmin {\r\n        require(locations[_location], \"Location does not exist\");\r\n        delete locations[_location];\r\n\r\n        for (uint256 i = 0; i < locationList.length; i++) {\r\n            if (keccak256(bytes(locationList[i])) == keccak256(bytes(_location))) {\r\n                locationList[i] = locationList[locationList.length - 1];\r\n                locationList.pop();\r\n                break;\r\n            }\r\n        }\r\n    }\r\n\r\n    function addProduct(\r\n        string memory _name, \r\n        string memory _manufacturer, \r\n        uint256 _quantity, \r\n        string memory _origin, \r\n        string memory _destination, \r\n        string memory _date_of_departure, \r\n        string memory _expected_arrival_date, \r\n        string memory _status\r\n    ) public onlyRegisteredUser {\r\n        require(locations[_origin], \"Invalid origin location\");\r\n        require(locations[_destination], \"Invalid destination location\");\r\n        require(statuses[_status], \"Invalid status\");\r\n        require(isNextOrSameLocation(_origin, _destination), \"Invalid destination: Not the next location\");\r\n        string memory productId = string(abi.encodePacked(\"P\", uint2str(productCounter)));\r\n        productCounter++;\r\n        require(!products[productId].exists, \"Product ID already exists\"); // Ensure unique ID\r\n        products[productId] = Product(\r\n            productId, \r\n            _name, \r\n            _manufacturer, \r\n            _quantity, \r\n            _origin, \r\n            _destination, \r\n            _date_of_departure, \r\n            _expected_arrival_date, \r\n            _status, \r\n            true\r\n        );\r\n        productIds.push(productId); // Store the product ID\r\n\r\n        // Add initial shipment history\r\n        shipmentHistories[productId].push(ShipmentHistory(block.timestamp, _origin, _destination, _date_of_departure, _expected_arrival_date, _status));\r\n        \r\n        // Display the product ID as output\r\n        emit ProductAdded(productId);\r\n    }\r\n\r\n    event ProductAdded(string productId);\r\n\r\n    function updateProductLocation(\r\n        string memory _productId, \r\n        string memory _origin, \r\n        string memory _destination, \r\n        string memory _date_of_departure, \r\n        string memory _expected_arrival_date, \r\n        string memory _status\r\n    ) public onlyRole(Role.Inspector) onlyRegisteredUser {\r\n        require(products[_productId].exists, \"Product does not exist\");\r\n        require(locations[_destination], \"Invalid new location\");\r\n        require(statuses[_status], \"Invalid status\");\r\n        require(isNextOrSameLocation(products[_productId].destination, _destination), \"Invalid destination: Not the next or same location\");\r\n        require(isValidOrigin(products[_productId].origin, products[_productId].destination, _origin), \"Invalid origin: Must be same as previous origin or previous destination\");\r\n        require(isNextOrSameStatus(products[_productId].status, _status), \"Invalid status: Not the next or same status\");\r\n\r\n        Product storage product = products[_productId];\r\n\r\n        product.origin = _origin;\r\n        product.destination = _destination;\r\n        product.date_of_departure = _date_of_departure;\r\n        product.expected_arrival_date = _expected_arrival_date;\r\n        product.status = _status;\r\n\r\n        // Add to shipment history\r\n        shipmentHistories[_productId].push(ShipmentHistory(block.timestamp, _origin, _destination, _date_of_departure, _expected_arrival_date, _status));\r\n    }\r\n\r\n    function isNextOrSameLocation(string memory currentLocation, string memory nextLocation) internal view returns (bool) {\r\n        uint currentIndex = getLocationIndex(currentLocation);\r\n        uint nextIndex = getLocationIndex(nextLocation);\r\n        return nextIndex == currentIndex || nextIndex == currentIndex + 1;\r\n    }\r\n\r\n    function isValidOrigin(string memory previousOrigin, string memory previousDestination, string memory newOrigin) internal pure returns (bool) {\r\n        return (keccak256(bytes(newOrigin)) == keccak256(bytes(previousOrigin)) || keccak256(bytes(newOrigin)) == keccak256(bytes(previousDestination)));\r\n    }\r\n\r\n    function isNextOrSameStatus(string memory currentStatus, string memory nextStatus) internal pure returns (bool) {\r\n        ProductStatus current = stringToProductStatus(currentStatus);\r\n        ProductStatus next = stringToProductStatus(nextStatus);\r\n        return next == current || next == ProductStatus(uint(current) + 1);\r\n    }\r\n\r\n    function stringToProductStatus(string memory status) internal pure returns (ProductStatus) {\r\n        if (keccak256(bytes(status)) == keccak256(bytes(\"Created\"))) {\r\n            return ProductStatus.Created;\r\n        } else if (keccak256(bytes(status)) == keccak256(bytes(\"Shipped\"))) {\r\n            return ProductStatus.Shipped;\r\n        } else if (keccak256(bytes(status)) == keccak256(bytes(\"InTransit\"))) {\r\n            return ProductStatus.InTransit;\r\n        } else if (keccak256(bytes(status)) == keccak256(bytes(\"Delivered\"))) {\r\n            return ProductStatus.Delivered;\r\n        }\r\n        revert(\"Invalid status\");\r\n    }\r\n\r\n    function getLocationIndex(string memory location) internal view returns (uint) {\r\n        for (uint i = 0; i < locationList.length; i++) {\r\n            if (keccak256(bytes(locationList[i])) == keccak256(bytes(location))) {\r\n                return i;\r\n            }\r\n        }\r\n        revert(\"Location not found\");\r\n    }\r\n\r\n    // Function to get the index of an enum value\r\n    function getIndex(ProductStatus status) public pure returns (uint) {\r\n        return uint(status);\r\n    }\r\n\r\n    function getProduct(string memory _productId) public view onlySupplierOrLogisticIfUpToManufacturer(_productId) onlyRegisteredUser returns (Product memory) {\r\n        return products[_productId];\r\n    }\r\n\r\n    function getProductHistory(string memory _productId) public view onlyRegisteredUser returns (ShipmentHistory[] memory) {\r\n        return shipmentHistories[_productId];\r\n    }\r\n\r\n    function getAllLocations() public view onlyRegisteredUser returns (string[] memory) {\r\n        return locationList;\r\n    }\r\n\r\n    // Utility function to convert uint256 to string\r\n    function uint2str(uint256 _i) internal pure returns (string memory) {\r\n        if (_i == 0) {\r\n            return \"0\";\r\n        }\r\n        uint256 j = _i;\r\n        uint256 len;\r\n        while (j != 0) {\r\n            len++;\r\n            j /= 10;\r\n        }\r\n        bytes memory bstr = new bytes(len);\r\n        uint256 k = len;\r\n        while (_i != 0) {\r\n            k = k - 1;\r\n            uint8 temp = (48 + uint8(_i - _i / 10 * 10));\r\n            bytes1 b1 = bytes1(temp);\r\n            bstr[k] = b1;\r\n            _i /= 10;\r\n        }\r\n        return string(bstr);\r\n    }\r\n\r\n    function productStatusToString(ProductStatus status) internal pure returns (string memory) {\r\n        if (status == ProductStatus.Created) {\r\n            return \"Created\";\r\n        } else if (status == ProductStatus.Shipped) {\r\n            return \"Shipped\";\r\n        } else if (status == ProductStatus.InTransit) {\r\n            return \"InTransit\";\r\n        } else if (status == ProductStatus.Delivered) {\r\n            return \"Delivered\";\r\n        }\r\n        return \"\";\r\n    }\r\n\r\n    // Modifier to restrict getProduct access based on role and location\r\n    modifier onlySupplierOrLogisticIfUpToManufacturer(string memory _productId) {\r\n        require(products[_productId].exists, \"Product does not exist\");\r\n        Product memory product = products[_productId];\r\n        if (users[msg.sender].role == Role.Supplier) {\r\n            require(\r\n                keccak256(bytes(product.origin)) == keccak256(bytes(\"Supplier\")) ||\r\n                keccak256(bytes(product.destination)) == keccak256(bytes(\"Transport\")) ||\r\n                keccak256(bytes(product.destination)) == keccak256(bytes(\"Manufacturer\")),\r\n                \"Access denied: Product location is beyond Manufacturer for Supplier\"\r\n            );\r\n        }\r\n        if (users[msg.sender].role == Role.LogisticEmployee) {\r\n            require(\r\n                keccak256(bytes(product.origin)) == keccak256(bytes(\"Supplier\")) ||\r\n                keccak256(bytes(product.destination)) == keccak256(bytes(\"Transport\")) ||\r\n                keccak256(bytes(product.destination)) == keccak256(bytes(\"Manufacturer\")) ||\r\n                keccak256(bytes(product.destination)) == keccak256(bytes(\"LogisticWarehouse\")),\r\n                \"Access denied: Product location is beyond LogisticWarehouse for LogisticEmployee\"\r\n            );\r\n        }\r\n        _;\r\n    }\r\n}\r\n",
  "sourcePath": "C:\\Users\\Bill\\Desktop\\New folder\\PharmChain\\contracts\\PharmaChain.sol",
  "compiler": {
    "name": "solc",
    "version": "0.8.0+commit.c7dfd78e.Emscripten.clang"
  },
  "schemaVersion": "3.4.16",
  "updatedAt": "2024-07-27T11:53:55.613Z",
  "networkType": "ethereum",
  "devdoc": {
    "kind": "dev",
    "methods": {},
    "version": 1
  },
  "userdoc": {
    "kind": "user",
    "methods": {},
    "version": 1
  }
}